:20006200AC82AD83AEF0FF53B1BF53B2BF53B17F53B27F759850438920438780438E10532E
:20008200C4DF8C3C8D3D8E3E8F3F90424075F00FE412056FAC820CC3E49CF58DD28ED299D5
:2000A20022AC82AD83AEF0FF53B1BF53B2BF53B17F53B27F75985043878053C4F843C420B6
:2000C2008C3C8D3D8E3E8F3F90424075F00FE412056FAC82AD83AEF0FF74FFC39C74FF9D25
:2000E200F9E49EE49F89C674FFC39CFC8CC543C408D299223098FD859982C29822AF82C222
:20010200998F993099FD22AC82AD83AEF0FF53B1FB53B2FB53B3BF53B4BF75F85075C408B1
:2001220053C4DF8C3C8D3D8E3E8F3F90424075F00FE412056FAC82AD83AEF0FF74FFC39CDE
:2001420074FF9DF9E49EE49F89C674FFC39CFC8CC543C4082230F8FD859A82C2F822AF821D
:08016200C2F98F9A30F9FD2269
:20016A00AC82AD83AEF0FF538EF7438901D28CEC4D4E4F601A758A7E758CFF108D0280FB90
:20018A001CBCFF091DBDFF051EBEFF011F80E0C28C22AC82AD83AEF0FF538EF7438901D25A
:2001AA008CEC4D4E4F601A758ACA758CFA108D0280FB1CBCFF091DBDFF051EBEFF011F8042
:2001CA00E0C28C22AC82AD83AEF0FF538EEF438910D28EEC4D4E4F601A758BEA758DCB10A7
:2001EA008F0280FB1CBCFF091DBDFF051EBEFF011F80E0C28E22AC82AD83AEF0FF53C9BF88
:20020A0053C9DF43C910D2CAEC4D4E4F601A75CC3075CDF810CF0280FB1CBCFF091DBDFF11
:20022A00051EBEFF011F80E0C2CA22AC82AD83AEF0FF75C40743C408EC4D4E4F602575C5C7
:20024A002C75C6CFAAC45302107B00BA10F6BB00F353C4EF1CBCFF091DBDFF051EBEFF0102
:20026A001F80D553C4F722AC82AD83AEF0FF75C40743C408EC4D4E4F602575C5D875C6FFDF
:20028A00AAC45302107B00BA10F6BB00F353C4EF1CBCFF091DBDFF051EBEFF011F80D55331
:0302AA00C4F72274
:03000000020006F5
:03005F0002000399
:030003000204CC28
:2002AD003098FDAF99C2987E008F828E8322AE82AF83BE0A11BF000E90000DC007C00612C4
:2002CD0002BBD006D007C2998E993099FD9000002285820885830985F00AE41205D412022B
:2002ED00ADAB82AC83850882850983850AF0EB1205D4BBA0E974012508FAE43509FBAC0AC0
:20030D00C004C003C0021202ADA882D002D003D0048A828B838CF0E81205D474022508F522
:20032D000BE43509F50C850A0DC004C003C0021202ADAD82D002D003D004850B82850C830E
:20034D00850DF0ED1205D474032508FDE43509FEAF0AC007C006C005C004C003C00212020D
:20036D00ADA882A983D002D003D004D005D006D0078D828E838FF0E81205D4850882850963
:20038D0083850AF0120DAFFF8A828B838CF0120DAFFA2FFF850B82850C83850DF0120DAF7F
:2003AD00FE2FFFB50001220202EB2290000E75F0401202DEAF0FBF01028029BF0202802B4F
:2003CD00BF0302802DBF0402802FBF11028031BF12028032BF13028033BF21028034BF2225
:2003ED0002805022E51024FF928522E51024FF928322E51024FF928422E51024FF928122BF
:20040D008510DBD2DE228510DDD2DE228510DCD2DE22A295E433FE7F00C006C00774CFC0AB
:20042D00E0740DC0E07480C0E0120617E58124FBF58122A292E433FE7F00C006C00774D62F
:20044D00C0E0740DC0E07480C0E0120617E58124FBF58122AC82AD83AEF0FF53B1BF43B23B
:20046D004043B18053B27F759850438920438780438E1053C4DF8C3C8D3D8E3E8F3F9042CF
:20048D004075F00FE412056FAC820CC3E49CF58DD28ED29922AD82AE83AFF0C007C006C0F9
:2004AD00051202ADAB82D005D006D0078D828E838FF0EB1205D4A3AD82AE83BB0ADD2290EE
:2004CD004B00E4F5F012046174DDC0E0740DC0E07480C0E01206171581158115817422C097
:2004ED00E0740EC0E07480C0E012061715811581158153B1FD43B20253B1F743B20853B174
:20050D00EF43B21053B1DF43B22053B3FE43B40153B3FD43B40253B1FE43B20143B30453A5
:20052D00B4FB43B32053B4DF75D10075D9FF538EBF43DF0753DFEF43DE0243DE0443DE0815
:20054D00C291C280D2909001F4E4F5F012019C75D30075D40075D50075DB10D2DF1203B8E1
:02056D0080FB11
:200DCF0053313A25780A0053323A25780A000A0A0A48656C6C6F20776F726C642E20492721
:200DEF006D2061206861636B79206F70656E736F75726365206669726D7761726520666FF1
:200E0F0072204C432D74656368206D6F64756C65730A00476F20636865636B206F75742042
:200E2F006D7920626C6F672068747470733A2F2F6E63726D6E742E6F726720666F72206D12
:130E4F006F726520617765736F6D652073747566660A00E7
:20056F00FB7A20E4FCFDFEFFE5822582F582E58333F583E5F033F5F0EB33FB4017DAE980C5
:20058F0042E5822582F582E58333F583E5F033F5F0EB33FBEC33FCED33FDEE33FEEF33FFF4
:2005AF00EC953CED953DEE953EEF953F4013EC953CFCED953DFDEE953EFEEF953FFF43821E
:0505CF0001DABEEB2281
:06003500E478FFF6D8FD9F
:200013007900E94400601B7A00900E6D780175A000E493F2A308B8000205A0D9F4DAF27518
:02003300A0FF2C
:1B05D40020F71130F6138883A88220F509F6A8837583002280FEF280F5F02226
:20003B007800E84400600A790175A000E4F309D8FC7800E84400600C7900900001E4F0A3C3
:04005B00D8FCD9FAFA
:2005EF00C03B85813B7E008E831202BBD03B2285822385832485F025E4F520F521F522858A
:20060F0012269005EF0206DDC03BE581F53B24FBFF8F26E4F520F521F522E53B24FBF886E3
:10062F00230886240886259005EF1206DDD03B228D
:20063F00AF82C016C017C01812064C8007C014C0158F8222158115811581051EE4B51E0280
:20065F00051F22AF8274302FFF24C6500B74072FFFE51360034307208F8202063FE582FFC1
:20067F00C4540FF582C007120662D007740F5FF58202066285823CAB19AC1AAD1BAE1CAAD9
:20069F001D753E208A07EF2FF53DEE235401453DFAEB2BFBEC33FCED33FDEE33FEC3EA95DE
:2006BF003C4008EAC3953CFA430301E53E14FF8F3E70D18B198C1A8D1B8E1C8A1D22858228
:2006DF0014858315852016852117852218E4F51EF51FAD23AE24AF258D828E838FF0120D54
:2006FF00AFFC74012DF523E43EF5248F25ECFF7003020D90BF25028003020D887E007D008F
:20071F008E278E287A007B008E297C008E2A8E30752BFF85233185243285253385318285C4
:20073F0032838533F0120DAFF534A38582318583328531238532248533257425B534088591
:20075F00348212063F808B74D025345039E53424C6403374FFB52B1AE530F53575F00AA407
:20077F00F535E534F536253524D0F53070AE7D0180AAE52B75F00AA4F536E534F5352536C7
:20079F0024D0F52B8096742EB5340A74FFB52B8C752B008087749F2534500EE53424854029
:2007BF00085334DF75130180037513007420B53403020866742BB53403020860742DB534A9
:2007DF000280797442B5340302086C7443B534030208777444B53403020A857446B53403E8
:2007FF00020A9B7448B5340302073B7449B53403020A85744AB5340302073B744CB5340274
:20081F008050744FB53403020A8C7450B534030209D07453B5340280767454B534030207B2
:20083F003B7455B53403020A917458B53403020A96745AB5340302073B020A9F7E01020781
:20085F003B75270102073B75280102073B7B0102073B75290102073BEB600AE52614F989E2
:20087F00268736800DE52624FEF535853526A9358736853682C006C005C004C003C00212F4
:20089F00063FD002D003D004D005D006020ABEE52624FDF536853626A9368731098732096C
:2008BF008733191985311985321A85331B8531828532838533F0C006C005C004C003C002CC
:2008DF00120D97858231858332D002D003D004D005D00685313674FFB52B0385362BEE7027
:2008FF0036C3E5369530502FE530C39536F5358535311535E531601C758220C006C005C08B
:20091F0004C003C00212063FD002D003D004D005D00680DB853530852B35851982851A8348
:20093F00851BF0120DAFF53185312D6045C374808535F063F08095F050381535852D82C00D
:20095F0006C005C004C003C00212063FD002D003D004D005D006851931851A32851B330571
:20097F0031E4B53102053285311985321A85331B80A8EE7003020ABEC3E536953040030276
:20099F000ABEE530C39536F5368536351536E5357003020ABB758220C006C005C004C003EA
:2009BF00C00212063FD002D003D004D005D00680D8E52624FDF535853526A9358731098727
:2009DF0032098733191985311985321A85331B851B2E7480252E5005753543801974A02535
:2009FF002E5005753550800E74C0252E50057535498003753558853582C006C005C004C02E
:200A1F0003C00212063F75823A12063F75823012063F75827812063FD002D003D004D00581
:200A3F00D0067449B5350280217450B53502801A851A82C006C005C004C003C00212067CA4
:200A5F00D002D003D004D005D006851982C006C005C004C003C00212067CD002D003D00452
:200A7F00D005D00680397A01752A0A8032752A08802D752A0A8028752A1080237C01801F0A
:200A9F00853482C006C005C004C003C00212063FD002D003D004D005D0068003853630EC53
:200ABF006068E52624FCFC8C268C01873709873809873909873A19191985371985381A8554
:200ADF00391B853A1C751962751A0E751B80851937851A38851B3974012537F531E435385E
:200AFF00F53285393385311985321A85331B8537828538838539F0120DAFFC8C377003021E
:200B1F0006F185378212063F80C4E52A70030206F1EB603FE52614F9892687048C3775381F
:200B3F0000753900753A0085371985381A85391B853A1CEA6003020BDB85193775380075AD
:200B5F003900753A0085371985381A85391B853A1C8069E5296025E52624FCFC8C268C014C
:200B7F00873709873809873909873A19191985371985381A85391B853A1C8040E52624FEA5
:200B9F00FC8C268C018703098704198B37ECF5383395E0F539F53A85371985381A85391B5F
:200BBF00853A1CEA7016851937851A38F539F53A85371985381A85391B853A1CEA602AE509
:200BDF001C30E723C3E49519F537E4951AF538E4951BF539E4951CF53A85371985381A85A8
:200BFF00391B853A1C80027A007C0179457B00751D00852A82C006C005C004C003C002C09E
:200C1F0001120693D001D002D003D004D005D006EC7010C003E51DC4F537E74537F719D0B0
:200C3F00038002A71D0BECB40100E433FCE519451A451B451C70B8892F8B2CE530700375DB
:200C5F003001ED702CEE7029853037AB2C0BC3EB9537501A758220C006C005C004C0021248
:200C7F00063FD002D004D005D006153780DD853730EA601675822DC006C005C00412063F00
:200C9F00D004D005D00615308036E52C6032E527601675822BC006C005C00412063FD004FA
:200CBF00D005D00615308018E5286014758220C006C005C00412063FD004D005D00615308B
:200CDF00EE7034AB308B021BC3E52C9A503CED600875373075380080067537207538008584
:200CFF003782C006C005C004C00312063FD003D004D005D00680CEC3E52C95305008E5300D
:200D1F00C3952CFD80067D0080028B05A92FAB2C8B021BEA6036ECB40100E433FC700A0910
:200D3F00E7C4540FFA8A1D80078702740F5AF51D851D82C006C005C004C003C00112066275
:200D5F00D001D003D004D005D00680C4EE70030206F18D068E051EED70030206F1758220FF
:180D7F00C00612063FD00680EB8F8212063F0206F1851E82851F83222F
:0B0E62003C4E4F20464C4F41543E00D8
:180D9700AA82AB83120DAF6003A380F8C3E5829AF582E5839BF58322C6
:0D000600758145120DCBE5826003020003F9
:1C0DAF0020F71430F6148883A88220F507E6A88375830022E280F7E49322E02253
:040DCB00758200220B
:00000001FF
